:020000040800F2
:100000006823002011020008E12300080B130008F8
:10001000DD2300089F0B0008F137000800000000F6
:10002000000000000000000000000000352D000866
:10003000F10D00080000000069240008212E0008CE
:100040002B0200082B0200082B0200082B020008DC
:100050002B0200082B0200082B0200082B020008CC
:100060002B0200082B0200082B0200082B020008BC
:100070002B0200082B0200082B0200082B020008AC
:100080002B0200082B0200082B0200082B0200089C
:10009000C93500082B0200082B0200082B020008BB
:1000A0002B0200082B0200082B0200082B0200087C
:1000B0000D2F00082B0200082B0200082B0200085D
:1000C0002B0200082B0200082B0200082B0200085C
:1000D0002B020008E5330008F5330008053400085A
:1000E0002B0200082B0200082B02000800F002F887
:1000F00000F064F80AA090E8000C82448344AAF15E
:100100000107DA4501D100F059F8AFF2090EBAE85B
:100110000F0013F0010F18BFFB1A43F0010318473B
:10012000E4F2000004F30000103A24BF78C878C15C
:10013000FAD8520724BF30C830C144BF04680C60ED
:10014000704700000023002400250026103A28BF35
:1001500078C1FBD8520728BF30C148BF0B60704739
:10016000692900F0F980642900F0F680752900F013
:10017000F3806F2900F08A81782900F0AF8103684D
:10018000DB0928BF41F08001632900F03A8373291D
:1001900000F03F83E32900F05D83002070471FB526
:1001A00000F0A1FA00F0B4FB04000020002104F0EC
:1001B00057FE401C60601FBD10B510BD00F082FBF3
:1001C0001146FFF7ECFF04F0B9FC00F0A5FB03B407
:1001D000FFF7F2FF03BC03F01AFB00000B49D1F854
:1001E00000C04A685CF8043B1068184442F8040BED
:1001F0008C4528BFA1F1DC0C8A4228BFA1F1DC02AA
:10020000C1F800C04A6020F000407047FC1C00208C
:100210000948804709480047FEE7FEE7FEE7FEE79A
:10022000FEE7FEE7FEE7FEE7FEE7FEE704480549D6
:10023000054A064B70470000AD2E0008ED0000088F
:10024000681D002068230020681F0020681F002010
:10025000704700000FB4044910B503AA029800F0DB
:10026000DDFA10BC5DF814FB2C0000200FB41CB5A7
:10027000074B06AA7B4469460090059800F09FFA58
:100280000020694600F0AEFA1CBC5DF814FB0000CB
:100290006D05000070B5044685690068C10601D58A
:1002A000302600E02026C00707D070BDD4E9012128
:1002B00030469047206A401C20626D1EF6D570BD06
:1002C00070B5044685690078C00707D170BDD4E9D0
:1002D000012120209047206A401C20626D1EF6D527
:1002E00070BD09684A0501D540B27047C905FCD503
:1002F00000B2704709684A0501D5C0B27047C90508
:10030000FCD580B2704770B50C460546012A05D071
:100310002878800600D5EA69002302E0012305E081
:100320005B1C934202D2E05C0028F9D1A869E61870
:10033000C01AA861286A184428622846FFF7AAFF55
:1003400004E0D5E9012114F8010B9047B442F8D339
:100350002846FFF7B5FF70BD2DE9F04106460024A1
:1003600010687529314616A510D0FFF7BAFF00288E
:1003700002DA404213A507E031688A0701D512A5C9
:1003800002E0490704D511A5012401E0FFF7B2FFFF
:1003900000210A2206F1240709E0B0FBF2FCB0FBC1
:1003A000F2F302FB1C00303078541846491C002838
:1003B000F3D123462A463046BDE8F04100F0A0B90B
:1003C000000000002D0000002B00000020000000B5
:1003D0002DE9FF5F15468A460446DFF8AC80F844F5
:1003E0000027D8E900103E46CDE9001010E03AF8A9
:1003F00016106A4602A800F039FA411C07D021788D
:10040000890603D5E269391891420DD80744761C54
:100410002078800602D5E069B84205DDAE42E6DB11
:100420003AF816000028E2D1A069C01BA06120465E
:10043000FFF730FFD8E90010CDE90010002017E0E9
:100440003AF818106A4602A800F010FAB0F1FF3F1F
:1004500081460BD000250DF1080B05E0D4E9012100
:100460001BF8050090476D1C4D45F7D308F10100BE
:10047000B0428046E4DB206A384420622046FFF721
:100480001FFFBDE8FF9F0000DEEF000070B50446CF
:1004900021461068FFF72EFF002104F1240505E036
:1004A00000F007023032C0086A54491C0028F7D116
:1004B0002068002307A2050707D5800600D421B1D4
:1004C000E069012304A2401EE0612046BDE87040BF
:1004D00000F016B9000000003000000070B50446BE
:1004E0000D4621461068FFF705FF2188090502D552
:1004F0000F4A7A4402E00E4A7A440E32002104F197
:10050000240305E000F00F060009965D5E54491CC7
:100510000028F7D120780023000704D5702D02D0E1
:1005200009B1022311322046BDE8704000F0E8B85E
:10053000D2EE00002DE9F05F894604464FF0000A34
:10054000DFF874B1FB44C0F820A02046E16888477A
:10055000002874D0252806D0D4E901219047206ACC
:10056000401C2062F1E700265F462046E16888478C
:100570002028054607DB312D05D2781910F8200C0C
:1005800008B10643F1E7B00701D526F00406C4F828
:100590001CA00027C4F818A02A2D09D0284603F073
:1005A0002FF938B304EB8708303DC8F8185019E02C
:1005B00059F8041B204604EB87029161E1688847E3
:1005C000012F054618D1E069002820DA26F0200620
:1005D0001DE0D8F8180000EB800005EB4000303833
:1005E000C8F818002046E1688847054603F008F976
:1005F0000028EED1012F0AD02E2D08D12046E16827
:1006000088477F1C0546022F46F02006C4DBA06900
:10061000002803DA404246F00106A061F00701D04D
:1006200026F010066C2D0BD0682D09D04C2D39D03A
:100630006A2D35D0742D35D07A2D33D016E038E0C0
:10064000E1682F4620468847B842054609D16C2FFD
:1006500026D04FF48060E16806432046884705466F
:1006600004E06C2F1AD04FF4807006430DB3A5F14F
:100670004100192802D8203546F400664A4629462A
:10068000204626604E46FFF76BFD80B101280BD057
:10069000F61D26F0070000F1080956E74020E4E7C0
:1006A0008020D8E70020D6E706F104094DE7284668
:1006B00052E7206ABDE8F09FA8EE00000B4910B594
:1006C000A1F17C020A4CC2E93712372106E000EBA7
:1006D000104342F82130074B00FB03400B1EA1F1F1
:1006E0000101F4DC10BD0120E8E700009C1C0020A3
:1006F000E119D666CD0D010070477047704770470D
:100700002DE9F0470D4699469246044600F124082B
:100710000168880604D5E06921F01001216000E03D
:100720000120A84201DD471B00E00027A1697A19DA
:1007300002EB0900081AA0612078C00602D4204606
:10074000FFF7A8FD002608E0D4E901211AF8060009
:100750009047206A401C761C20624E45F4DB2078CE
:10076000C0060AD52046FFF795FD06E0D4E9012131
:1007700030209047206A401C2062381EA7F10107F4
:10078000F4DC07E0D4E9012118F805009047206A5D
:10079000401C2062281EA5F10105F3DC2046FFF76E
:1007A0008FFD2078000602D50220BDE8F0870120E9
:1007B000FBE7000001694A1C02610878704700B538
:1007C0008FB0CDE901310021059105497944CDE98A
:1007D000031011466846FFF7ADFE0FB000BD0000E4
:1007E000E5FFFFFF0A6802F8010B0A60704710B5C9
:1007F000436913B1AFF3008001E0FFF784FD0120EE
:1008000010BD127800F124010A7000224A70012202
:10081000EDE711684FF0FF32E9E70000074B70B5D4
:100820000D467B44FFF7CBFF0446284600F046F810
:1008300010B14FF0FF3070BD204670BD533C00003A
:1008400010B5436913B1AFF3008001E0FFF7C0FDBD
:10085000012010BD128800F1240182840022C2848C
:100860000122EDE711684FF0FF32E9E770B5164657
:100870000C46054600F01AF8036893F801010128B8
:1008800006D0FF2C0FD8185D68B101202C7070BD08
:10089000D3F807013246214603F2071303442846E2
:1008A000BDE8704018474FF0FF3070BD10B500F044
:1008B0002FF8001D10BD00BFA9450000007B00F00F
:1008C00080007047754600F031F8AE460500694675
:1008D000534620F00700854618B020B5FFF7A6FC68
:1008E000BDE820404FF000064FF000074FF0000831
:1008F0004FF0000B21F00701AC46ACE8C009ACE8B2
:10090000C009ACE8C009ACE8C0098D4670470000DA
:1009100000487047241D002010B50446AFF3008046
:100920002046BDE81040FFF752BC00000048704769
:10093000041D00204FF0013C50F8042B51F8043BFB
:100940009A4221D1A2EB0C03934313EACC1317D1A3
:1009500050F8042B51F8043B9A4215D1A2EB0C033A
:10096000934313EACC130BD150F8042B51F8043BFA
:100970009A4209D1A2EB0C03934313EACC13DBD0C8
:100980004FF00000704700BFD01A01BAB1FA81F1F0
:1009900001F0180122FA01F0CB40C1F12001DBB2D5
:1009A000C0B2C01A2CFA01F3D11A914311EAC31153
:1009B000E6D1704721B1826842F00102826003E013
:1009C000826822F0010282607047000010B5044680
:1009D0001248844208D10121401501F093FD002105
:1009E000601501F08FFD17E00D48844208D1012108
:1009F000001501F087FD0021201501F083FD0BE0BB
:100A00000848844208D10121C80301F07BFD002180
:100A10004FF4004001F076FD10BD000000240140BD
:100A200000280140003C0140014600208A6802F095
:100A300004020AB1012000E0002070470146C86CA2
:100A400080B270470246002013680B400BB10120B2
:100A500000E000207047014600208A6802F008028A
:100A60000AB1012000E000207047000030B50246C6
:100A70000020002350680F4C20400D790C6844EA98
:100A800005242043506090680B4C2040D1E902546B
:100A90002C434D7944EA450420439060D06A20F409
:100AA00070000C7C641EE4B2234340EA0350D06221
:100AB00030BD0000FFFEF0FFFDF7F1FFF0B504468A
:100AC0000D4600200021092D11DDE068A5F10A0680
:100AD00006EB4607072606FA07F18843A5F10A0642
:100AE00006EB460603FA06F10843E0600CE02069D5
:100AF00005EB4507072606FA07F1884305EB45068F
:100B000003FA06F108432061072A0FDA606B561ECC
:100B100006EB86071F2606FA07F18843561E06EBEA
:100B2000860605FA06F10843606322E00D2A0FDA13
:100B3000206BD61F06EB86071F2606FA07F18843AF
:100B4000D61F06EB860605FA06F10843206310E07F
:100B5000E06AA2F10D0606EB86071F2606FA07F1EA
:100B60008843A2F10D0606EB860605FA06F1084356
:100B7000E062F0BD816841F008018160704721B1F9
:100B8000826842F4A002826003E0826822F4A0023C
:100B900082607047816841F004018160704700BF46
:100BA000FEE70000014609B909487047012901D153
:100BB0000848FAE7022901D10748F6E7032901D1DD
:100BC0000020F2E7042901D10020EEE70020ECE745
:100BD00078030020A00B0020C813002008B52520B2
:100BE0008DF8000000208DF8020001208DF8030030
:100BF000684601F0F7FB26208DF8000001208DF8F3
:100C000002008DF80300684601F0ECFB27208DF808
:100C1000000002208DF8020001208DF803006846D4
:100C200001F0E0FB08BD000000F0805111B1034964
:100C3000086001E002494860704700000404024077
:100C40000000024021B1026842F00102026004E0AB
:100C500002684FF6FE731A400260704701684FF653
:100C6000FE72114001600021016041608160C1603D
:100C70004B49884208D14A490839496841F00F0177
:100C8000474A083A51608AE045491431884208D100
:100C900043490839496841F0F001414A083A516036
:100CA0007DE03F492831884208D13D4908394968EB
:100CB00041F470613A4A083A516070E038493C3179
:100CC000884208D136490839496841F47041344AAC
:100CD000083A516063E032495031884208D13049C6
:100CE0000839496841F470212D4A083A516056E0AC
:100CF0002B496431884208D129490839496841F4AF
:100D00007001274A083A516049E025497831884204
:100D100008D123490839496841F07061204A083AEE
:100D200051603CE01F49884206D1011F096841F02B
:100D30000F01021F116032E01A491431884208D1B4
:100D40001849091F096841F0F001164A121F116085
:100D500025E014492831884208D11249091F096841
:100D600041F470610F4A121F116018E00D493C31C7
:100D7000884208D10B49091F096841F47041094AAA
:100D8000121F11600BE007495031884207D1054915
:100D9000091F096841F47021024A121F116070474F
:100DA00008000240080402400146486880B27047CB
:100DB00010B50022026847F6F0739A430C6A8B68FC
:100DC00023430C6923434C6923438C692343CC6937
:100DD00023434C6A23438C6A23431A430260CB6843
:100DE00043600B6883604B68C36010BD416070470F
:100DF000704700000EB53E48C07D401C3C49C87598
:100E00000846C07D15280FDB0DE04FF6FF7000F09F
:100E100041FD00214FF4784001F040F930222C21AF
:100E200034A001F055F9F0E7002000F033FD40F266
:100E3000CF107F239F2200210090084600F04FFE34
:100E400040F2CF100B239F2219460090002000F0A3
:100E5000E4FD00214FF6FF7001F020F90322042188
:100E600028A001F035F90322502128A001F030F923
:100E700000214FF4784001F011F900204FF478413F
:100E800024A2CDE9002102901948C27D012303214B
:100E9000282003F0AEFA00204FF478411DA2CDE9DE
:100EA000002102901248827D01230321742003F067
:100EB000A0FA00214FF4784001F0F0F830222C2104
:100EC0000CA001F005F948220E2113A001F000F951
:100ED00003E002F0C3FD16490870154800780128A8
:100EE000F7D1002000F0D6FC00F0C8FB0EBD0000DA
:100EF000061C0020594F55204152452057494E218C
:100F0000000000004C4556454C3A000053636F7298
:100F1000653A000025640000505245535320454E69
:100F200054455220544F20524553544152540000CE
:100F3000430000200EB5002000F0ACFC40F2CF10C2
:100F40007F239F2200210090084600F0C8FD40F258
:100F5000CF100B239F2219460090002000F05DFD6A
:100F600000214FF6FF7001F099F80322042123A01D
:100F700001F0AEF80322502122A001F0A9F80021CF
:100F80004FF4784001F08AF800204FF478411FA216
:100F9000CDE9002102901E48C27D012303212820B3
:100FA00003F027FA00204FF4784118A2CDE9002180
:100FB00002901748827D01230321742003F019FA5F
:100FC00000214FF6FF7001F069F83022322111A0A4
:100FD00001F07EF848220E2111A001F079F803E01B
:100FE00002F03CFD14490870134800780128F7D13D
:100FF000002000F04FFC00F041FB0EBD4C45564573
:101000004C3A000053636F72653A0000256400009B
:10101000061C002047414D45204F564552210000F7
:10102000505245535320454E54455220544F205260
:101030004553544152540000430000200149C86008
:10104000704700000020024030B5044604254FF4EC
:10105000302000F06FF80546042D17D10C480069C8
:1010600040F002000A49086108464461006940F006
:10107000400008614FF4302000F05CF80546044859
:10108000006941F6FD71084001490861284630BDFC
:101090000020024004200B49C96801F0010109B198
:1010A00001200EE00749C96801F0040109B10220DE
:1010B00007E00449C96801F0100109B1032000E00C
:1010C00004207047002002400348006940F080007F
:1010D00001490861704700000020024070B50446D5
:1010E0000D460426F00200F025F80646042E11D124
:1010F0000948006940F00100074908612580F002B5
:1011000000F018F806460448006941F6FE710840F0
:1011100001490861304670BD002002400248034981
:10112000486003484860704723016745002002403B
:10113000AB89EFCD00B502460423FFF7ABFF0346B2
:1011400003E0FFF7A7FF0346521E012B01D1002A3F
:10115000F7D102B90523184600BD2DE9F04102463A
:1011600000250026002000230024002791F803C05A
:101170000CF00F0591F803C00CF0100CBCF1000F3F
:1011800003D091F802C04CEA050591F800C0BCF10B
:10119000000F31D0146800202BE04FF0010C0CFA46
:1011A00000F3B1F800C00CEA03069E4220D1830090
:1011B0004FF00F0C0CFA03F7BC4305FA03FC4CEAA2
:1011C000040491F803C0BCF1280F06D14FF0010CC4
:1011D0000CFA00FCC2F814C00AE091F803C0BCF19C
:1011E000480F05D14FF0010C0CFA00FCC2F810C0FA
:1011F000401C0828D1D31460B1F800C0BCF1FF0F27
:1012000034DD546800202EE000F1080C4FF0010896
:1012100008FA0CF3B1F800C00CEA03069E4221D193
:1012200083004FF00F0C0CFA03F7BC4305FA03FCE4
:101230004CEA040491F803C0BCF1280F05D100F179
:10124000080C08FA0CF8C2F8148091F803C0BCF13D
:10125000480F07D100F1080C4FF0010808FA0CF80C
:10126000C2F81080401C0828CED35460BDE8F0813D
:10127000F0B50A46002300240021002500F00046B6
:10128000B6F1004F02D11D4EF16901E01B4E7168AD
:10129000C0F3034583B200F44016B6F5401F08D1F1
:1012A00021F07061154E766826F07066134F7E60EF
:1012B00012E000F48016B6F5801F06D1032606FA68
:1012C00005F4A14341F0706106E0460D360103FAD2
:1012D00006F6B14341F0706122B1460D360103FAC2
:1012E00006F6314300F00046B6F1004F02D1034E3E
:1012F000F16101E0014E7160F0BD000000000140AD
:101300000AB1016100E04161704700BFFEE70000E3
:1013100000B585B00121052001F0E4F80121880322
:1013200001F0E0F84FF40070ADF8100018208DF8CF
:10133000130003208DF8120004A96648FFF70DFF83
:101340004FF48060ADF8100004208DF8130004A95C
:101350006048FFF702FF4FF4E13000900020ADF845
:101360000400ADF80600ADF80800ADF80C000C2044
:10137000ADF80A006946584802F0B0F8012240F280
:101380002551554802F085F80121534802F04BF8E9
:101390004021514802F03EF80121052001F0A2F859
:1013A0000121480401F07EF80420ADF81000182057
:1013B0008DF8130003208DF8120004A94548FFF7AB
:1013C000CCFE0820ADF8100004208DF8130004A90D
:1013D0004048FFF7C2FE04A93E48FFF7BEFE4FF4A7
:1013E000E13000900020ADF80400ADF80600ADF843
:1013F0000800ADF80C000C20ADF80A00694637482B
:1014000002F06CF8012240F22551344802F041F814
:101410000121324802F007F84021304801F0FAFF7C
:101420000121082001F05EF810208DF81300032040
:101430008DF812000420ADF8100004A92848FFF729
:101440008CFE0121092001F04DF80121880401F0F2
:1014500029F84FF48060ADF8100018208DF81300C3
:1014600003208DF8120004A91D48FFF776FE4FF403
:101470000060ADF8100004208DF8130004A918488E
:10148000FFF76BFE04A91648FFF767FE4FF41650EE
:1014900000900020ADF80400ADF80600ADF808009B
:1014A000ADF80C000C20ADF80A0069460D4802F0BA
:1014B00015F8012240F225510A4801F0EAFF012106
:1014C000084801F0B0FF4021064801F0A3FF05B035
:1014D00000BD000000080140003801400044004009
:1014E000000C014000480040FEB5002600207E238D
:1014F0009E2201210090084600F016FB4FF4FC608C
:101500007F239F2200210090084600F0E8FA022283
:101510004549464802F064FD4FF4FC6020239F22B9
:1015200019460090002000F078FA4FF4FC607F2309
:101530004F2220210090104600F06FFA00214FF654
:10154000FF7000F0ABFD0C22012139A000F0C0FDBE
:1015500002223549354802F043FD334800884FF6F2
:10156000FF71884206D100202F49088002222F48AF
:1015700002F0A8FE3022532134A000F0A9FD002083
:101580004FF4784134A20123CDE90021029026488E
:1015900002883021832002F02CFF5022632130A0EA
:1015A00000F096FD012002F045FA06463046FFF7AE
:1015B00085F8FEF713FE0A2190FBF1F201FB120001
:1015C0002949087001241EE000BFFEF707FE0A212A
:1015D00090FBF1F201FB120023490855002508E0B9
:1015E0002148005D2049495D884200D103E0681C24
:1015F000C5B2A542F4DB00BFA54200D100E0E4E79C
:1016000000BF601CC4B2042CDEDB00201749087048
:10161000174908705F201749087048708870C870B3
:10162000012015490870FEBD4A00002000F800089E
:10163000202020202020204775657373204E756D73
:1016400062657220202020202020000054697074E0
:101650006F703A2000000000253034640000000064
:101660005F205F205F205F005000002048000020C6
:10167000540000204C000020550000203EB54FF6DD
:10168000FF703C49088000203B49088040F2CF10A1
:101690007F239F2200210090084600F020FA40F2AC
:1016A000CF100B239F2219460090002000F0B5F9BF
:1016B00000214FF6FF7000F0F1FC032204212FA05F
:1016C00000F006FD032250212EA000F001FD0021B4
:1016D0004FF4784000F0E2FC00204FF478412BA258
:1016E000CDE9002102902A48C27D01230321282050
:1016F00002F07FFE00204FF4784124A2CDE90021C2
:1017000002902348827D01230321742002F071FEA0
:1017100002201F49087500204875887501201D4961
:10172000887000201C49087016201C49087000248D
:1017300009E004F10A00164908550C2114480A3042
:101740000155601CC4B21248007DA042F1DC0024A7
:1017500008E00F4A0A32115D0A3A105D01F031FECD
:10176000601CC4B20A48007DA042F2DC01200C4992
:1017700008703EBD3E000020400000204C4556450C
:101780004C3A000053636F72653A00002564000014
:10179000061C0020450000204300002042000020DD
:1017A000440000200448006800F4804008B901208B
:1017B00070470020FCE70000080C014010B500F065
:1017C00009F820B100F012F808B1012010BD002086
:1017D000FCE700000448006800F4807008B90120AC
:1017E00070470020FCE7000008080140044800683A
:1017F00000F4005008B9012070470020FCE7000009
:10180000080C01400448006800F4006008B9012099
:1018100070470020FCE70000080801400448006809
:1018200000F0100008B9012070470020FCE700001C
:10183000080C01400448006800F4805008B90120F9
:1018400070470020FCE700000808014004480068D9
:1018500000F0080008B9012070470020FCE70000F4
:10186000080C01400448006800F4004008B9012059
:1018700070470020FCE700000808014010B5FFF7A2
:1018800091FF20B1FFF7A6FF08B1012010BD002095
:10189000FCE7000070B5064610484089401E83B240
:1018A0000E480089401E82B20021084603F0FAF873
:1018B0000A48C4880DE00948858804E0304600F0F5
:1018C000B5FB681C85B205480089A842F6DC601C9F
:1018D00084B202484089A042EDDC70BDF01B0020BC
:1018E0002DE9F84304460D4616461F46DDF82080D4
:1018F000E819401E83B2A019401E82B22946204634
:10190000CDF8008000F010F9BDE8F8832DE9FC5F08
:1019100006460F4693469946DDE90CA435480089F2
:10192000B0420FDD33484089B8420BDD062000FB92
:101930000460401E002805D4082000FB0470401EEF
:10194000002801D5BDE8FC9F00254EE0052D02D101
:101950000020019005E00BEB8B0027490844405D17
:1019600001904FF000083BE0019800F00100B8B191
:10197000012C08D107EB080291B2721990B24A46C5
:1019800000F0A1F825E008FB047291B205FB0462A7
:1019900090B223462246CDF80090FFF7A1FF18E051
:1019A000CA4516D0012C08D107EB080291B2721972
:1019B00090B2524600F087F80BE008FB047291B237
:1019C00005FB046290B223462246CDF800A0FFF743
:1019D00087FF01984010019008F1010000F0FF0816
:1019E000B8F1080FC0DB681CC5B2062DAEDB00BF26
:1019F000A8E70000F01B0020C4EE0008F8B504467C
:101A00000D4616461F46A019401E82B22B46294697
:101A10002046009700F001F8F8BD2DE9FF4F85B092
:101A200081468A460020039083460798A0EB09056B
:101A30000898A0EB0A06CDF80890CDF804A0002D78
:101A400001DD012705E00DB9002702E04FF0FF3767
:101A50006D42002E02DD4FF0010806E016B94FF08E
:101A6000000802E04FF0FF387642B54201DD2C4617
:101A700000E03446002004901EE0019A91B2029AE0
:101A800090B2129A00F01FF8039828440390B344D0
:101A90000398A04205DD0398001B03900298384488
:101AA0000290A34504DDABEB040B01984044019088
:101AB0000498401C80B20490611C04988842DCDDCC
:101AC00009B0BDE8F08F70B505460E4614463146A4
:101AD000284602F085FF204600F0A8FA70BD2DE9E7
:101AE000F84305460E4617469846089C33463A4644
:101AF000314628460094FFF790FF43462A46314678
:101B000028460094FFF789FF43463A464146284657
:101B10000094FFF782FF43463A4631463846009428
:101B2000FFF77BFFBDE8F8832DE9F05F05460E4621
:101B300017469846DDF828A04FF0000B781B401C94
:101B40001FFA80FB344611E02146284602F048FF88
:101B50004FF0000906E0504600F068FA09F1010074
:101B60001FFA80F9D945F6DB601C84B24445EBDDF1
:101B7000BDE8F09F08B50121082000F0B3FC4FF448
:101B8000E050ADF8000010208DF8030003208DF820
:101B9000020069460348FFF7E0FA012002490860A5
:101BA00008BD0000000C0140B081214208B50020B2
:101BB0000090FFF7DFFF00F085F900F0ABF911218D
:101BC000002000F019FA782001F094FEB1210020E5
:101BD00000F012FA0121084600F00EFA2C21012033
:101BE00000F00AFA2D21012000F006FAB2210020AF
:101BF00000F002FA0121084600F0FEF92C21012034
:101C000000F0FAF92D21012000F0F6F9B3210020AF
:101C100000F0F2F90121084600F0EEF92C21012034
:101C200000F0EAF92D21012000F0E6F90121084633
:101C300000F0E2F92C21012000F0DEF92D21012035
:101C400000F0DAF9B421002000F0D6F907210120D4
:101C500000F0D2F9C021002000F0CEF9A22101202D
:101C600000F0CAF90221012000F0C6F98421012008
:101C700000F0C2F9C121002000F0BEF9C521012009
:101C800000F0BAF9C221002000F0B6F90A210120C3
:101C900000F0B2F90021012000F0AEF9C3210020CC
:101CA00000F0AAF98A21012000F0A6F92A210120DA
:101CB00000F0A2F9C421002000F09EF98A21012041
:101CC00000F09AF9EE21012000F096F9C5210020DC
:101CD00000F092F90E21012000F08EF9362100204B
:101CE00000F08AF9C021012000F086F9E0210020EF
:101CF00000F082F90F21012000F07EF91A21012065
:101D000000F07AF90F21012000F076F91821012066
:101D100000F072F92F21012000F06EF92821012036
:101D200000F06AF92021012000F066F9222101204B
:101D300000F062F91F21012000F05EF91B21012053
:101D400000F05AF92321012000F056F93721012033
:101D500000F052F90021012000F04EF90721012086
:101D600000F04AF90221012000F046F9102101207B
:101D700000F042F9E121002000F03EF90F2101209E
:101D800000F03AF91B21012000F036F90F21012063
:101D900000F032F91721012000F02EF93321012043
:101DA00000F02AF92C21012000F026F92921012038
:101DB00000F022F92E21012000F01EF9302101202F
:101DC00000F01AF93021012000F016F93921012024
:101DD00000F012F93F21012000F00EF9002101204E
:101DE00000F00AF90721012000F006F90321012083
:101DF00000F002F91021012000F0FEF82A21002055
:101E000000F0FAF80021012000F0F6F8022101208C
:101E100000F0F2F80021012000F0EEF87F2101200F
:101E200000F0EAF82B21002000F0E6F80021012064
:101E300000F0E2F80121084600F0DEF80021012060
:101E400000F0DAF89F21012000F0D6F8F021002000
:101E500000F0D2F80121084600F0CEF8F62100206B
:101E600000F0CAF80021012000F0C6F83A21002055
:101E700000F0C2F80521012000F0BEF82921002061
:101E800000F0BAF802F0DCFDA02000F05DF80222BC
:101E900069460B4802F0A4F8BDF8000018B1BDF87F
:101EA0000000092806DD0920009002226946044846
:101EB00002F008FABDF80010C8B200F015F808BD2D
:101EC00000FC00081CB532204FF4FA610423044AD8
:101ED000CDE900100221034802F0B6F81CBD000055
:101EE00000040040000C014010B50446052C06DA41
:101EF00004EB84004100064801F0FFF907E0601F91
:101F000032225043323081B2014801F0F6F910BD5F
:101F10000004004010B5012009490860322001F09A
:101F2000E9FC00200749C1F8AC01322001F0E2FCD5
:101F3000012003490860322001F0DCFC10BD0000E4
:101F4000AC8121420080214210B50446BCB1602C16
:101F50003AD0A02C25D0C02C49D10020254988702A
:101F60008880C88080200881A02048810220888144
:101F70000120C881C021362000F07AF838E0002026
:101F80001C4988708880C88080200881A0204881F2
:101F9000022088810120C8810021362000F068F8E5
:101FA00026E001201349887000208880C880A02086
:101FB000088180204881012088810220C881A021D9
:101FC000362000F055F813E001200A4988700020FF
:101FD0008880C880A02008818020488101208881D5
:101FE0000220C8816021362000F042F800E000BFE6
:101FF00000BF10BDF01B002070B505460C46002048
:102000000949086025B1012007490839086003E043
:102010000020054908390860204602F0B1F9012086
:102020000149086070BD0000B081214210B504462E
:1020300000200849086001200749C1F8A8012012C2
:1020400002F09EF9E0B202F09BF90120014908601C
:1020500010BD0000B08121420080214210B503482C
:10206000017C0020FFF7C8FF10BD0000F01B00201E
:1020700070B504460D4621460020FFF7BDFF2946F6
:102080000120FFF7B9FF70BD024A1080024A11809B
:10209000704700003400002036000020024A108003
:1020A000024A118070470000380000203A000020EA
:1020B000002801DD014600E00121014A117070474E
:1020C0003C00002001490870704700003D000020DE
:1020D00070B504460D4616460020FFF7F3FF314663
:1020E0002846FFF7D1FF03E014F8010B00F018F8C1
:1020F00020780028F8D170BD70B504460D4616460C
:102100000120FFF7DFFF31462846FFF7BDFF03E060
:1021100014F8010B00F004F820780028F8D170BD05
:102120001CB504460A2C0BD12048007820490988A8
:1021300001EBC0001E49088000201E49088034E0E1
:102140000D2C32D0194800781B490988CDE90010C0
:102150001A48038822461648018816480088FFF767
:10216000D5FB1248007800EB40001249098801EBCA
:1021700040001049088012480078B0B11148008929
:102180000A49097801EB4101A0EB4100094909889E
:1021900088420ADA054800780549098801EBC00041
:1021A000034908800020034908801CBD3C00002032
:1021B00036000020340000203A00002038000020C3
:1021C0003D000020F01B002010B592B0002401213A
:1021D000084600F057F90121082000F083F9012199
:1021E000880300F05FF93548FEF738FD00200490C1
:1021F00033480190334802901020039000200A9049
:1022000005908020069040000790800008900020F4
:10221000099001A92948FEF7CBFD4FF40040ADF825
:10222000440018208DF8470003208DF8460011A9BE
:102230002548FEF792FF22480C3800F023FD4FF4AA
:102240004040ADF830004FF48270ADF832004FF4EA
:102250000060ADF834000020ADF83600ADF838006D
:102260004FF40070ADF83A000820ADF83C000020B3
:10227000ADF83E000720ADF840000CA910480C381E
:1022800000F03AFD012202210D480C3800F0F0FC6C
:1022900001210B480C3800F0DFFC00BF06E04AF6D5
:1022A000AA20084921F81400601C84B2FF2CF6DD36
:1022B00000200649088012B010BD000058000240FE
:1022C0000C38004080000020000C01400400002079
:1022D00070B504464FF4E0454FF4FE4600238023DA
:1022E00009E004EA030109B1314600E0294688B259
:1022F00000F064F85B10012BF3DA70BDF0B5044612
:10230000C4F30725C4F30746E7B23046FFF7E0FF02
:102310002846FFF7DDFF3846FFF7DAFFF0BD000083
:102320002DE9F04106460D46002400272148FEF71E
:102330003BFD00283CD100BF05E056F82400FFF724
:10234000DDFF601CC4B2AC42F7D3062D10D2C5F13C
:102350000600C4B20AE0002704E00020FFF7B8FF3F
:10236000781CC7B2032FF8DB601CC4B2AC42F2D3B6
:10237000002404E0002000F021F8601CC4B2142CFA
:10238000F8DB00200C49088000210A48FEF75AFCBF
:102390004FF40030FEF748FC05EB4500C000143058
:1023A00081B20448FEF722FD01210248FEF74AFCF3
:1023B000BDE8F08158000240040000200549064AAB
:1023C000128821F8120004490988491C024A118028
:1023D00070470000800000200400002000BFFEE7DE
:1023E0007047000070B5002100230F22C47804B3A9
:1023F000154C246804F4E064C4F5E064210AC1F1DA
:102400000403CA40447804FA03F184781440214359
:1024100009010E4C0678A155047804F01F0501242B
:10242000AC4005786D11AD0005F1E025C5F800411F
:1024300009E0047804F01F050124AC40044D06783F
:10244000761145F8264070BD0CED00E000E400E098
:1024500080E100E002490143024A11607047000038
:102460000000FA050CED00E0704700000146002076
:10247000034A506820F44040084350607047000011
:102480000010024029B1064A52690243044B5A61C6
:1024900004E0034A52698243014B5A6170470000CD
:1024A0000010024029B1064AD2690243044BDA61A6
:1024B00004E0034AD2698243014BDA6170470000AD
:1024C0000010024029B1064A12690243044B1A6106
:1024D00004E0034A12698243014B1A61704700000D
:1024E0000010024029B1064A92690243044B9A61E6
:1024F00004E0034A92698243014B9A6170470000ED
:102500000010024029B1064AD2680243044BDA6047
:1025100004E0034AD2688243014BDA60704700004E
:102520000010024030B500210022002400232D4D70
:102530006D6805F00C0121B1042905D0082923D1CB
:1025400005E0294D056022E0274D05601FE0254D7F
:102550006D6805F47012234D6D6805F48034022512
:1025600005EB92421CB9214D554305600BE01D4D12
:102570006D6805F400351DB11C4D5543056002E042
:10258000194D5543056002E0174D056000BF00BFBF
:10259000144D6D6805F0F0010909154D6B5C056877
:1025A000DD4045600F4D6D6805F4E061090A104D8E
:1025B0006B5C4568DD4085600A4D6D6805F46051CF
:1025C000C90A0B4D6B5C4568DD40C560054D6D6803
:1025D00005F44041890B074D6B5CC568B5FBF3F50D
:1025E000056130BD0010024000127A0000093D0074
:1025F000560000206600002008B501210820FFF7E2
:1026000071FF03208DF8020010208DF803000420D4
:10261000ADF8000069460248FEF79FFD08BD0000C6
:10262000000C014070470000042001490860704719
:10263000100C01400420014908607047140C01404F
:1026400010B50448007810B9FEF74EFF01E001F024
:102650001DFF10BD5500002010B50648007810B9C8
:10266000FFF70CF805E001F0F9F90349087000F0F4
:10267000D3F810BD440000204300002010B5644A88
:10268000917A107800F08EFE62480078132829D1E4
:1026900000240AE05E49601C085C085501F10A004C
:1026A000611C415C0155601CC4B25948007D401E4C
:1026B000A042EFDC5648007D801E5549085C401E54
:1026C000C1B25348007D401E514A11541046007D4E
:1026D000801E02F10A01085C0A39097D491E0A328E
:1026E000505485E04B480078162829D100240AE090
:1026F0004749601C085C085501F10A00611C415CF7
:102700000155601CC4B24248007D401EA042EFDC6F
:102710003F48007D801E3E49085C401CC1B23C48D9
:10272000007D401E3A4A11541046007D801E02F181
:102730000A01085C0A39097D491E0A32505457E0E3
:10274000344800780D2827D100240AE03049601C65
:10275000085C085501F10A00611C415C0155601CD0
:10276000C4B22B48007D401EA042EFDC2848007D0B
:10277000801E2749085C097D491E254A5054104691
:10278000007D801E02F10A01085C401EC2B2204892
:10279000007D401E0A542BE01E480078102827D1E7
:1027A00000240AE01A49601C085C085501F10A007F
:1027B000611C415C0155601CC4B21548007D401E7F
:1027C000A042EFDC1248007D801E1149085C097DA3
:1027D000491E0F4A50541046007D801E02F10A0126
:1027E000085C401CC2B20A48017D491E0A304254AE
:1027F000002408E0064A0A32115D0A3A105D00F032
:10280000E0FD601CC4B20248007DA042F2DC10BDB5
:10281000061C0020420000203EB5002400250120B7
:1028200001F008F905462846FDF748FFFB48007807
:10283000162846D1FA480078132842D0F94A917AEE
:10284000107800F0AFFD00BF0AE0F649601C085C9C
:10285000085501F10A00611C415C0155601CC4B2BD
:10286000F048007D401EA042EFDCEE48007D801E57
:10287000EC49085C401CC1B2EA48007D401EE94AB0
:1028800011541046007D801E02F10A01085C0A39CD
:10289000097D491E0A325054002408E0E14A0A32F8
:1028A000115D0A3A105D00F08CFD601CC4B2DD4879
:1028B000007DA042F2DC1620D94908700020D749DB
:1028C0000870D6480078132846D1D54800781628D5
:1028D00042D0D44A917A107800F064FD00240AE0D6
:1028E000D049601C085C085501F10A00611C415C7C
:1028F0000155601CC4B2CB48007D401EA042EFDCF5
:10290000C848007D801EC749085C401EC1B2C5484A
:10291000007D401EC34A11541046007D801E02F106
:102920000A01085C0A39097D491E0A325054002404
:1029300008E0BC4A0A32115D0A3A105D00F041FD20
:10294000601CC4B2B748007DA042F2DC1320B44939
:1029500008700020B1490870B04800780D2844D1B3
:10296000AF480078102840D0AE4A917A107800F035
:1029700019FD00240AE0AB49601C085C085501F110
:102980000A00611C415C0155601CC4B2A548007D71
:10299000401EA042EFDCA348007D801EA149085CD8
:1029A000097D491E9F4A50541046007D801E02F149
:1029B0000A01085C401EC2B29A48007D401E0A54BB
:1029C000002408E0974A0A32115D0A3A105D00F0CF
:1029D000F8FC601CC4B29348007DA042F2DC0D20DC
:1029E0008F49087000208D4908708C4800781028A5
:1029F00045D18B4800780D2841D08A4A917A1078C9
:102A000000F0D0FC00240AE08649601C085C0855F0
:102A100001F10A00611C415C0155601CC4B281488F
:102A2000007D401EA042EFDC7E48007D801E7D4977
:102A3000085C097D491E7B4A50541046007D801E6B
:102A400002F10A01085C401CC2B27648017D491EB1
:102A50000A304254002408E0724A0A32115D0A3AF0
:102A6000105D00F0AEFC601CC4B26E48007DA04258
:102A7000F2DC10206A490870002068490870674835
:102A8000007804280DD10020FEF704FF00206649DD
:102A900008706649087004206149087000205F4989
:102AA00008706048007D401E5E49085C002812DD09
:102AB0000846007D401E085C27280CDA0846007D89
:102AC000401E0A31085C032805DD5648007D401E83
:102AD000085C1F2802DB012052494875032411E0DD
:102AE0005048005D4F490978884209D14D480A3065
:102AF000005D4C49897A884202D1012049494875D4
:102B0000601CC4B24748007DA042E9DC4548407DD6
:102B1000012801D1FEF70EFA4248007D0A2801D1B2
:102B2000FEF768F93F48007D401E3E49085C404979
:102B30000978884232D13B48007D401E39490A312C
:102B4000085C3B494978884228D13648007D401CC2
:102B500034490875364801783248007D401E314AB4
:102B60001154334842782F48017D491E0A3042549F
:102B70000A38807D0A302B49887500204FF478414F
:102B80002CA2CDE9002102902648827D0123032159
:102B9000742001F02EFC012025498870244880789B
:102BA00020B9234A5178107800F00BFC2048807837
:102BB000012843D140E0FDF711FB1C2190FBF1F20D
:102BC00001FB1200401C1A490870FDF707FB1C218D
:102BD00090FBF1F201FB1200C01C15494870002463
:102BE0000FE0134800780F49095D884207D110486B
:102BF00001780C480A30005D814200D105E0601C7C
:102C0000C4B20848007DA042EBDC00BF0548007D4F
:102C1000A04211D10020064988700EE04300002038
:102C200042000020061C002000000020440000207C
:102C30004500002025640000BDE700BFFFF71EFD32
:102C40000449C97D01EB8101C922A2EB410000F0DA
:102C500051FE3EBD061C002021B1028842F0400218
:102C6000028004E002884FF6BF731A40028070476A
:102C70001AB183880B43838002E083888B4383806F
:102C80007047000010B504461148844208D1012164
:102C90008014FFF737FC0021A014FFF733FC16E087
:102CA0000C48844208D101210014FFF70BFC0021DD
:102CB0002014FFF707FC0AE00748844207D10121EE
:102CC000C013FFF7FFFB0021E013FFF7FBFB10BD74
:102CD0000030014000380040003C00400246002027
:102CE00013890B400BB1012000E000207047014622
:102CF000888970478181704710B50022028802F4EC
:102D000041520B884C8823438C882343CC8823432F
:102D10000C8923434C8923438C892343CC89234347
:102D20001A430280838B4FF2FF74234083830B8A04
:102D3000038210BD704710B500F002F810BD00000E
:102D40000CB50020019000903348006840F48030BA
:102D50003149086000BF3048006800F4003000903E
:102D60000198401C0190009818B90198B0F5A06F27
:102D7000F1D12948006800F4003010B10120009022
:102D800001E0002000900098012843D1234800680A
:102D900040F01000214908600846006820F0030058
:102DA00008600846006840F0020008601A48406861
:102DB000194948600846406848600846406840F441
:102DC000806048600846406820F47C1048600846EF
:102DD000406840F4E81048600846006840F08070A1
:102DE000086000BF0C48006800F000700028F9D0AF
:102DF0000948406820F003000749486008464068D9
:102E000040F00200486000BF0348406800F00C003A
:102E10000828F9D10CBD000000100240002002403B
:102E200010B500F001F810BD10B51B48006840B1A6
:102E300019480068401E1849086010B90120174958
:102E40000870002408E004EB4401154A02EB8100FD
:102E500001F0DCF9601CC4B2042CF4DB11480068FA
:102E6000401C10490860084600686FF00041884225
:102E700002D100200B49086001F0CEF80A48007822
:102E8000401CC0B2084908700A2803DB0020087003
:102E900001F0BEF810BD00000C0000201000002062
:102EA00098020020140000202800002010B51348CC
:102EB000006840F001001149086008464068104968
:102EC00008400E494860084600680E4908400B4912
:102ED00008600846006820F48020086008464068C2
:102EE00020F4FE0048604FF41F008860FFF723FFC6
:102EF0004FF000600449086010BD0000001002405F
:102F00000000FFF8FFFFF6FE08ED00E010B502211B
:102F1000480700F073F858B10221480700F050F854
:102F200000220221480700F07AF81B480068804719
:102F30000421080700F062F858B10421080700F0E6
:102F40003FF800220421080700F069F813480068E0
:102F500080470821C80600F051F858B10821C8067A
:102F600000F02EF800220821C80600F058F80C489E
:102F7000006880471021880600F040F858B1102101
:102F8000880600F01DF800221021880600F047F89E
:102F900004480068804710BD180000201C00002075
:102FA000200000202400002021B1028842F080028D
:102FB000028004E002884FF67F731A400280704757
:102FC000CA430282704721B1028842F001020280A6
:102FD00004E002884FF6FE731A400280704731B158
:102FE000B0F8442042F40042A0F8442005E0B0F8D4
:102FF0004420C2F30E02A0F84420704730B50246C8
:10300000002000230024158A05EA0103958905EABA
:10301000010413B10CB1012000E0002030BD1AB151
:1030200083890B43838102E083898B4383817047CB
:1030300070B5002400220023058C4FF6FE76354043
:103040000584028C8388048B4FF68F752C40B51E47
:103050002C400D882C43751E2A400D892A434D882B
:103060002A43144DA8420BD0134DA84208D0134D4B
:10307000A84205D0124DA84202D0124DA84213D149
:103080004FF6F7752A404D892A434FF6FB752A40C3
:103090008D882A434FF6FF652B404FF6FF552B4096
:1030A0008D892B43CD892B4383800483CD888586EE
:1030B000028470BD002C01400034014000400140FA
:1030C00000440140004801400A460021018B4FF6B0
:1030D000F7731940114301837047000070B5002455
:1030E00000220023058C4FF6EF7635400584028CD4
:1030F0008388048B48F6FF752C404FF6FF452C4023
:103100000D884FF6FF7606EA05252C434FF6DF754E
:103110002A400D8906EA05152A434D8806EA051559
:103120002A43154DA84202D0144DA8421DD14FF696
:103130007F752A404D894FF6FF7606EA05152A432A
:103140004FF6BF752A408D8806EA05152A434FF6CB
:10315000FF352B404FF2FF752B408D8906EA850520
:103160002B43CD8906EA85052B4383800483CD88D4
:103170000587028470BD0000002C0140003401402E
:103180000A460021018B4FF2FF7319404FF6FF737F
:1031900003EA0223194301837047000070B500243D
:1031A00000220023058C4FF6FF6635400584028C13
:1031B0008388848B4FF68F752C404FF6FC752C401E
:1031C0000D882C434FF6FF552A400D894FF6FF76A8
:1031D00006EA05252A434D8806EA05252A43154DAA
:1031E000A84202D0144DA8421DD14FF2FF752A40CB
:1031F0004D894FF6FF7606EA05252A434FF6FF353F
:103200002A408D8806EA05252A434EF6FF752B4095
:103210004DF6FF752B408D8906EA05152B43CD89A8
:1032200006EA05152B4383808483CD888587028435
:1032300070BD0000002C0140003401400A4600210E
:10324000818B4FF6F773194011438183704700005B
:1032500070B5002200230024058C4EF6FF76354021
:103260000584038C8488828B48F6FF752A404FF6CC
:10327000FF452A400D884FF6FF7606EA05252A43CA
:103280004DF6FF752B400D8906EA05352B434D8819
:1032900006EA05352B430B4DA84202D00A4DA84241
:1032A00008D14BF6FF752C408D894FF6FF7606EA64
:1032B00085152C4384808283CD88A0F840500384F8
:1032C00070BD0000002C0140003401400A4600217E
:1032D000818B4FF2FF7319404FF6FF7303EA02230D
:1032E0001943818370470021018041808180C18022
:1032F000018141818181C1817047A0F840107047F0
:10330000002202881D4B98420ED01D4B98420BD0D4
:10331000B0F1804F08D01B4B984205D01A4B984211
:1033200002D01A4B984204D14FF68F731A404B8843
:103330001A43174B984207D0164B984204D04FF6C9
:10334000FF431A40CB881A4302808B8883850B8801
:1033500003850A4B98420BD0094B984208D00E4B7C
:10336000984205D00D4B984202D00D4B984201D1A6
:103370000B7A03860123838270470000002C0140F2
:10338000003401400004004000080040000C0040F0
:103390000010004000140040004001400044014083
:1033A00000480140F8B504460D460020042606EB0F
:1033B000850306EB8402A9000090A000FEF7B4FB91
:1033C000F8BDF8B504460D464FF47840042606EBE8
:1033D000850306EB8402A9000090A000FEF7A4FB81
:1033E000F8BD000010B5024800F0F4F810BD000070
:1033F0007803002010B5024800F0ECF810BD000082
:10340000A00B002010B5024800F0E4F810BD000049
:10341000C813002001F40072B2F5007F00D100BF94
:10342000CA430280704721B1828942F400528281EE
:1034300004E082894DF6FF731A408281704770B5AF
:103440000246002400230025002040F66A16B142FF
:1034500000D100BFC1F3421501F01F03012606FA97
:1034600003F3012D02D19689334006E0022D02D1EB
:10347000168A334001E0968A33400C12012606FA80
:1034800004F41688344013B10CB1012000E0002090
:1034900070BDF0B50346002400260025002040F64C
:1034A0006A17B94200D100BF1846C1F3421401F0B7
:1034B0001F06012707FA06F5012C01D10C3004E0A4
:1034C000022C01D1103000E014301AB107682F43EC
:1034D000076002E00768AF430760F0BD2DE9F047E1
:1034E00086B005460E460024A24600BFA14600272E
:1034F000B08900B100BF2F462C8A4CF6FF70044003
:10350000F08804432C82AC894EF6F3100440B08856
:1035100031890843718908430443AC81AC8A4FF672
:10352000FF400440B0890443AC8201A8FEF7FAFFD3
:103530001F48874202D1DDF810A001E0DDF80CA0A1
:10354000A88900F4004040B10AEBCA0000EB0A1061
:1035500031684900B0FBF1F807E00AEBCA0000EB64
:103560000A1031688900B0FBF1F86420B8FBF0F074
:1035700004012009642101FB1089A88900F400409E
:1035800040B1322000EBC900B0FBF1F000F00700C1
:10359000044308E0322000EB09106421B0FBF1F095
:1035A00000F00F0004432C8106B0BDE8F087000056
:1035B0000038014001468888C0F308007047C1F315
:1035C00008028280704700000148C069704700000F
:1035D0000010024070B5044640F225512068FFF704
:1035E0002EFFE0B12068FFF7E5FFC5B2E18AA068D1
:1035F0004554E08A401C80B2E082E189884201DBC8
:103600000020E082608BE189884202DA608B401CF6
:103610006083606A10B12846616A884700BF40F243
:1036200027712068FFF70BFF08B3A08A60B900225A
:1036300040F227712068FFF72CFF012240F226613B
:103640002068FFF726FF37E0638A6268D15C206854
:10365000FFF7B5FF608A401C80B26082A189884272
:1036600001DB00206082A08A401EA08224E040F29C
:1036700026612068FFF7E3FEF0B1A08A50B900226E
:1036800040F226612068FFF704FF206AA0B1206A9B
:10369000804711E0638A6268D15C2068FFF78FFF82
:1036A000608A401C80B26082A189884201DB0020D0
:1036B0006082A08A401EA08270BDF8B504460E4606
:1036C0001746002529E00EE0012000F096F8A08AB8
:1036D0000090002000F091F8A089BDF80010884209
:1036E00000DD01E000BFEFE700BF705D228A616886
:1036F0008854012000F081F8208A401C80B220828A
:10370000A189884201DB00202082A08A401CA0827F
:10371000002000F072F8681C85B2BD42D3DB0122A4
:1037200040F227712068FFF7B4FEF8BD2148224916
:10373000086022484860224888604FF48060888191
:10374000C881002008824882C88208834883888212
:10375000C861086248621B481B4908601B484860F2
:103760001B4888604FF480608881C88100200882EF
:103770004882C882088348838882C8610862486298
:1037800014481549086015484860154888604FF48A
:1037900080608881C881002008824882C8820883AE
:1037A000488388820F48C8610F4808620F48486202
:1037B000704700000038014078030020A00300207B
:1037C000A007002000440040A00B0020C80B0020F0
:1037D000C80F002000480040C8130020F01300204C
:1037E000F0170020292600083526000825260008A5
:1037F00000BFFEE780F31088704780F310887047A1
:1038000030380A2801D2012070470020704700BFDD
:1038100070470000F0B5034698180F4FB84201D921
:103820000320F0BD0AB90020FBE7012600240BE0CD
:103830001D780878A84204D0FF2D01D00220F0E7BF
:1038400000265B1C491C641C9442F1D3012E01D15B
:103850000020E6E70120E4E700000108F8B505468E
:103860000C46284600F014F906460121FEF73AFE00
:10387000ADF8004010208DF8030003208DF8020001
:1038800069462846FDF769FCF8BD00002DE9F843BC
:1038900006460D4614469846304600F0F9F80746AD
:1038A0000121FEF71FFE1148844202D010488442D5
:1038B00007D1204600F020F907460121FEF712FE4D
:1038C00006E0204600F018F907460121FEF7EAFD60
:1038D000ADF8005018208DF8030003208DF8020089
:1038E00069463046FDF739FCBDE8F883002C0140FD
:1038F0000034014010B5044604B910BD012C00D1BC
:1039000002240120FFF776FF0948046000200949DE
:103910000870FFF76FFF06E000F059F905480078DE
:10392000012800D100E0F7E700BF00BFE5E7000095
:103930000C0000201000002070B50546304800EB58
:1039400005142068804700283ED02079052802DA37
:103950000520207152E020790A2803DA2079401CE2
:1039600020714BE0A07A38B90120A07205EB450127
:10397000491CC8B200F024FB208900283EDDE08805
:10398000218988420DDAE088401C80B2E0802189DC
:10399000884233D105EB4501C91CC8B200F010FBC9
:1039A0002CE0E07A002829DD207B401CC0B2207387
:1039B000E17A884222DB0020207305EB4501491C97
:1039C000C8B200F0FDFA19E02079052802DD0520D3
:1039D000207110E0207918B12079401E20710AE092
:1039E000A07A012807D10020A07205EB4501891CAF
:1039F000C8B200F0E5FA0020E080207370BD00003E
:103A0000C802002010B50723012203210848FDF752
:103A100055F801210648FDF7B2F800BF022104481D
:103A2000FDF710F80028F9D00148FDF707F810BDA0
:103A30000024014070B504460025002607E0FFF78A
:103A4000E1FF05440520FFF755FF701CC6B2A642F2
:103A5000F5DBB5FBF4F080B270BD00000B48807A56
:103A60000A4AD27A904201D1002070470748807AF2
:103A7000064A115C1046807A401CC0B290720A2837
:103A800001DB002090720846EFE700006803002089
:103A900001460020114A914201D104201CE0104A45
:103AA000914201D1082017E00E4A914201D1102025
:103AB00012E00D4A914201D120200DE00B4A9142C3
:103AC00001D1402008E00A4A914201D1802003E060
:103AD000084A914200D18815704700000008014053
:103AE000000C01400010014000140140001801408A
:103AF000001C01400020014001460020244A914260
:103B000001D1C81442E0234A914201D148143DE05A
:103B1000214A914202D14FF4002037E01F4A9142DE
:103B200002D14FF4801031E01D4A914202D14FF48E
:103B300000102BE0B1F1804F01D1012026E0194A9D
:103B4000914201D1022021E0174A914201D1042083
:103B50001CE0164A914201D1082017E0144A914214
:103B600001D1102012E0134A914201D120200DE032
:103B7000114A914201D1402008E0104A914201D1FE
:103B8000802003E00E4A914200D188157047000062
:103B9000002C014000340140004C01400050014025
:103BA000005401400004004000080040000C0040A8
:103BB000001000400014004000180040001C0040AD
:103BC0000020004001460020880A800270477047AC
:103BD00010B54FF44070FEF73DFC00F087F800F0A0
:103BE00089F900F0D7F900F047F900F005F8FDF782
:103BF000DDFFFEF7E9FA10BD00B587B001214FF4F3
:103C00000170FEF76FFC4FF40040FEF72FFC082018
:103C1000ADF8040000208DF8070001A91748FDF752
:103C20009CFA1748FCF7D2FE002002908DF80C0099
:103C30008DF80D004FF460200490002005900120C5
:103C40008DF8180002A90E48FCF710FF01210C485E
:103C5000FCF7B0FE0A48FCF78DFF00BF0848FCF7F0
:103C6000FAFE0028FAD10648FCF794FF00BF04488A
:103C7000FCF7DAFE0028FAD107B000BD00080140C9
:103C8000002401407FB501210846FEF70BFC1548D2
:103C9000006846081448B6FBF0F085B24FF6FF7492
:103CA000ADF80840ADF804500020ADF80A00ADF8BA
:103CB000060001A94FF08040FFF722FB0121880791
:103CC000FFF781F91C208DF8000004208DF8010019
:103CD00000208DF8020001208DF803006846FEF7F1
:103CE00081FB7FBD6C00002040420F0010B500F04A
:103CF00057F800F001F810BD08B501210D20FEF7BE
:103D0000F1FB01212348FDF7B3FA03208DF80200EF
:103D100048208DF803004FF48040ADF8000069465C
:103D20001D48FDF71AFA4FF48070ADF8000069469F
:103D30001A48FDF712FA4FF40050ADF8000069463A
:103D40001548FDF70AFA4FF40060ADF80000694627
:103D50001248FDF702FA1020ADF8000069460E483F
:103D6000FDF7FBF94FF48050ADF8000069460B48B1
:103D7000FDF7F3F90820ADF8000069460648FDF7A5
:103D8000ECF94FF40040ADF8000069460348FDF738
:103D9000E4F908BD00023000000C014000080140B9
:103DA0000021294A9172D1721173002018E0642118
:103DB000264A02EB001211810221244A02EB001272
:103DC00011710021214A02EB001291721F4A02EB8D
:103DD0000012D1721D4A02EB00121173411CC8B2CD
:103DE0000A28E4DB64221949A1F84820052281F859
:103DF0004B206422A1F85820052281F85B20642220
:103E0000A1F86820052281F86B206422A1F87820AF
:103E1000052281F87B200E490C4A11600D49116181
:103E20000D4911620D4911630D4911640D49116568
:103E30000D4911660D4911670D49C2F880100D49F1
:103E4000C2F890107047000068030020C8020020EC
:103E5000A5170008D5170008ED1700080518000879
:103E60001D180008351800084D18000865180008CE
:103E70007D180008BD17000808B501210803FEF7EA
:103E800031FB01210420FEF72DFB18208DF80300E3
:103E900003208DF802002020ADF800006946134889
:103EA000FDF75BF94020ADF8000069460F48FDF7CB
:103EB00054F98020ADF8000069460C48FDF74DF933
:103EC0004FF4417000F0AAF80948808B4FF2FF715F
:103ED0000840074988830720088200210448FEF72C
:103EE000BBFE01210248FEF7B7FE08BD00080140F5
:103EF0000030014070B5002416E0002004EB4401BE
:103F0000204A02EB8101486004EB440102EB81018D
:103F1000886004EB440102EB8101487004EB44012A
:103F200002F82100601CC4B2042CE6DB16480068CD
:103F30004FF47A72B0FBF2F1B1F1807F00D31DE053
:103F400021F07F40401E4FF0E022506150170F22B9
:103F5000002807DA13071E0E0C4B00F00F052D1F6B
:103F60005E5503E013071D0E094B1D5400BF0020D2
:103F70004FF0E02290610720106100BFFFF782FE42
:103F800070BD0000980200206C00002018ED00E0D9
:103F900000E400E010B5FFF7C9FBFDF7B9F9FEF743
:103FA0002BFBFCF71BFE10BD10B5002404E02046DF
:103FB000FFF7C2FC601CC4B20A2CF8DB10BD000085
:103FC0000649C97A054A50541146C97A491CC9B2F2
:103FD000D1720A2901DB0021D172704768030020E9
:103FE00030B503469818094DA84201D9012030BDCB
:103FF0000AB90120FBE7002404E013F8010B01F8E3
:10400000010B641C9442F8D30020F0E70000010883
:1040100010B5FFF7C9FF10BD7047000009490988B6
:1040200001F441510143074A1180114609884FF6B6
:10403000BF721140034A11801146098841F04001C6
:1040400011807047003001402DE9FF4F87B0834653
:1040500014461D46DDE9146ABAF1000F0FD10021A4
:104060002046FEF7B0FF58460899FFF7F7FB0022FD
:1040700058460899FDF744F90BB0BDE8F08F42F2BD
:10408000107082450DD100212046FEF79CFF584656
:104090000899FFF7E3FB012258460899FDF730F92C
:1040A000EAE72B46224658460899FFF7EFFB5148AE
:1040B00084420BD05048844208D05048844205D0F6
:1040C0004F48844202D04F48844203D14E48D0F832
:1040D000008002E04C48D0F80080642E0AD242F200
:1040E0000F7942F21070B8FBF0F0B0FBF6F0401E12
:1040F00087B213E040F6B830864209D24FF0630928
:104100006420B8FBF0F0B0FBF6F0401E87B205E08B
:104110004FF00009B8FBF6F0401E87B2ADF81470FE
:10412000ADF810900020ADF81600ADF812008DF833
:10413000180004A92046FFF7E3F86846FFF7D3F814
:104140006020ADF800000120ADF802000AFB07F086
:1041500042F21071B0FBF1F080B2ADF80600002021
:10416000ADF80800ADF80400ADF80A00ADF80C0099
:10417000ADF80E00012D08D169462046FEF758FF24
:1041800008212046FEF7A0FF1FE0022D08D1694656
:104190002046FEF7A3FF08212046FEF7F1FF14E0BA
:1041A000032D08D169462046FEF7F8FF0821204676
:1041B000FFF744F809E0042D07D169462046FFF7D0
:1041C00047F808212046FFF781F801212046FEF735
:1041D000EBFE01212046FEF7F6FE0648844202D09F
:1041E0000548844203D101212046FEF7F8FE00BFB6
:1041F00042E70000002C014000340140004C014027
:1042000000500140005401406C000020416851B151
:104210004168491E416031B901214170017801298D
:1042200001D181684160704770B504460D46042C89
:1042300006DB124A12A11AA0FCF70CF800BFFEE739
:104240000120FFF7D7FA04EB44001D4901EB800081
:10425000456004EB440001EB80008560002004EB26
:104260004401174A02EB81014870012004EB44012C
:1042700002F821000020FFF7BDFA70BDA3EE000890
:104280002E2E5C2E2E5C557365725C6273705C73AF
:1042900072635C6273705F74696D65722E63000097
:1042A0004572726F723A2066696C652025732C2006
:1042B00066756E6374696F6E20257328290D0A0078
:1042C000980200202DE9F05F0746884614464FF01B
:1042D000040938192949884202D90120BDE8F09F14
:1042E0000CB90020FAE704F0010008B10120F5E75D
:1042F000224641463846FFF78DFA06460EB90020A1
:10430000ECE7012080F3108800BFFCF707FF3520A1
:10431000FCF794FE022E0BD13846FFF753FC834680
:10432000FCF792FE8146B9F1040F01D00220D5E7D7
:10433000002512E018F815A06800401C18F80000CD
:104340004AEA002A51463846FCF7C8FE8146B9F1D0
:10435000040F00D004E0BF1C6D1CB5EB540FE9D373
:1043600000BFFCF7B1FE002080F3108800BFB9F158
:10437000040F00D1B2E70220B0E7000000000108FE
:1043800010B5044600BF02210948FEF7A7FC00282B
:10439000F9D021460648FEF7ADFC00BF01210448D4
:1043A000FEF79CFC0028F9D00148FEF7A0FC10BDE8
:1043B000003001402DE9F04105460E4617462846DB
:1043C000FCF7F0FB04460CB9BDE8F081E06908B1E8
:1043D000E06980473A4631462046FFF76EF900BF54
:1043E000F2E713B50446012201A92046FFF7E2FFD8
:1043F0001CBD2DE9F04786B004460D4616461F4603
:10440000DDE90F9ADDF838803246414603A8FBF714
:104410002DFF3B4603AA29462046CDE9009A00F02D
:1044200003F806B0BDE8F0872DE9FC47064688464C
:1044300014461F46DDE90A9A012F04D0032F04D049
:10444000042F06D103E0062503E0082501E0082536
:1044500000BF00BF0BE00120CDE900A014F8012B44
:104460004B4641463046FDF751FA701986B2207826
:104470000028F0D1BDE8FC8770B504460D46E1B2D6
:104480000020FFF7AEFF204670BD00002DE9FE437F
:1044900000260027FA480078012847D1FFF7DEFA06
:1044A000F84908700846007800283FDD0846007883
:1044B00013283CD1F4480078002831DD5F21F3480F
:1044C000F14A1278815401200021CDE90010EF4912
:1044D000ED4B1B78CA5CEC49097801EB4101632381
:1044E00003EB81004FF6FF735021FDF70FFAE6480A
:1044F0000078401EE449087001200021CDE9001039
:10450000E249E14B1B78CA5CDF49097801EB4101C4
:10451000632303EB81004FF478435021FDF7F6F954
:104520001320DB4908700020D6490870F8E1D5480F
:104530000078162837D1D448007804282CDA0120D6
:104540000021CDE90010D149CF4B1B78CA5CCE4980
:10455000097801EB4101632303EB81004FF6FF7300
:104560005021FDF7D3F9C8480078401CC6490870AF
:1045700001200021CDE90010C449C34B1B78CA5C5F
:10458000C149097801EB4101632303EB81004FF43A
:1045900078435021FDF7BAF91620BD490870002074
:1045A000B8490870BCE1B74800780D2840D1B74839
:1045B000B5490978405C392805DCB448B249097826
:1045C000405C302805DA3A21B048AF4A127881546D
:1045D0000AE0AE48AC490978405C302804D13A2161
:1045E000AA48A94A12788154A848A7490978405C8A
:1045F000401EA649A44A1278885401200021CDE922
:104600000010A249A04B1B78CA5C9F49097801EBB6
:104610004101632303EB81004FF478435021FDF700
:1046200075F90D209A49087000209649087077E1C5
:1046300094480078102841D1944893490978405C07
:10464000392805DC914890490978405C302805DA22
:104650002F208E498C4A127888540AE08B488A4968
:104660000978405C392804D12F208849864A12787D
:104670008854864884490978405C401CC1B283480C
:10468000814A1278815401200021CDE900107F4930
:104690007D4B1B78CA5C7C49097801EB410163239F
:1046A00003EB81004FF478435021FDF72FF91020E0
:1046B0007749087000207349087031E1714800782B
:1046C000012871D14FF00008002412E0601CC5B22F
:1046D0000AE06E48005D6D49495D884202D14FF0A5
:1046E000010803E0681CC5B2042DF2DB00BF601CAA
:1046F000C4B2042CEADBB8F1000F54D1002415E059
:1047000000250FE06148415D6248005D3030814224
:1047100006D1A54202D1701CC6B201E0781CC7B216
:10472000681CC5B2042DEDDB601CC4B2042CE7DBB1
:1047300059480078082870DA042E36D100207E23EC
:104740009E22212100900120FDF7EEF900214FF675
:10475000FF70FDF7A3FC3022012150A0FDF7B8FC4B
:1047600055480088401C5449088002225348FFF7EE
:10477000A9FD50220B2152A0FDF7AAFC00204FF406
:10478000784153A20123CDE9002102904A480288D2
:1047900050215920FFF72DFE40F6B830FFF7AAF858
:1047A00000203749087064E0A8E03B48007800EB3F
:1047B0008000400000F12802102147A0FDF788FC8E
:1047C00001200021CDE9001006F13000C2B23248CC
:1047D000007800EB8000400000F128014FF478439E
:1047E0001020FDF793F801200021CDE9001007F11A
:1047F0003000C2B22848007800EB8000400000F191
:1048000028014FF478432820FDF780F822480078EB
:10481000401C214908702CE0FFE700207E239E22E7
:10482000212100900120FDF77FF900214FF6FF7054
:10483000FDF734FC3022012129A0FDF749FC50226C
:104840000B211FA0FDF744FC00204FF4784120A26B
:104850000123CDE9002102901748028850215920F8
:10486000FFF7C7FD40F6B830FFF744F800200449D1
:1048700008700120064908700020024908704FE0C6
:104880005500002043000020480000204C0000207C
:104890004200002050000020540000202020202052
:1048A00020436F6E67726174756C6174696F6E21FD
:1048B00020202020202000004A00002000F80008CE
:1048C0002020202020546970746F703A200000006E
:1048D00025303464000000002020412020204200C8
:1048E0002020202020202047616D65204F766572B2
:1048F00020212020202020202020000009480078AE
:1049000004280DD10020FCF7C5FF002006490870DF
:104910000649087004200649087000200149087003
:10492000BDE8FE8343000020000000205500002069
:10493000420000202DE9FC4106460F4614464FF088
:104940000808254604EB08002978CDE90010A8885E
:10495000401E83B26888401E82B23946304600F05D
:1049600011F8BDE8FC8110B502462AB111F8014BDF
:1049700020020B78184304E011F8010B0B7840EA91
:10498000032010BD2DE9F84F04460D4616461F467C
:10499000DDE90AA84FF0000B3B4632462946204687
:1049A00000F080F82946204600F01AF8301B401C21
:1049B000791B491C00FB01FB4FF000090BE00AF0DA
:1049C00010004146FFF7CFFF0090FDF72FFB08F1E5
:1049D000020809F10109D945F1D3BDE8F88F0000BB
:1049E00070B504460D4615488088204413498989CE
:1049F000084484B21148C08828441049C989084431
:104A000085B20E48817C0020FDF7F6FA21120120C4
:104A1000FDF7F2FAE1B20120FDF7EEFA0748017D59
:104A20000020FDF7E9FA29120120FDF7E5FAE9B2C5
:104A30000120FDF7E1FAFDF711FB70BDF01B00202E
:104A400047F2357010490880002088708880C8803F
:104A500080200881A02048812C2008822A204882BA
:104A60002B208882002009490880094908800120FC
:104A7000084908704FF6FF70074908800749088009
:104A80000120074908707047F01B00203400002007
:104A9000360000203C000020380000203A000020B2
:104AA0003D0000202DE9F04104460D4616461F4604
:104AB00021488088204420498989084484B21E48BE
:104AC000C08828441C49C989084485B21A4880898D
:104AD000304486B21848C089384487B21648817C71
:104AE0000020FDF789FA21120120FDF785FAE1B2D5
:104AF0000120FDF781FA31120120FDF77DFAF1B2B4
:104B00000120FDF779FA0C48017D0020FDF774FAC9
:104B100029120120FDF770FAE9B20120FDF76CFAC5
:104B200039120120FDF768FAF9B20120FDF764FAA5
:104B3000FDF794FABDE8F081F01B0020FFF748F87C
:104B400000F07CF80020FCF7A5FEFCF797FDFCF7D1
:104B5000CBFC4FF4FA710020FFF766FB4FE0FFF744
:104B600036F827480078A8B90020FCF793FE00210A
:104B70004FF6FF70FDF792FA2022102121A0FDF7D9
:104B8000A7FA4822022125A0FDF7A2FA01201C491C
:104B9000087034E01A480078012823D1FEF75EFF40
:104BA0002549087008460078002828DD0846007866
:104BB000102809D10020FCF76DFE03201049087071
:104BC00000201D4908701AE01B4800780D2816D1F6
:104BD0000020FCF75FFE02200949087000201649FA
:104BE00008700CE006480078022802D1FDF734FD79
:104BF00005E003480078032801D1FDF721FDAEE769
:104C00000000002050726573732055702C20506C8A
:104C1000617920536E616B652100000050726573ED
:104C20007320446F776E2C20506C61792047756536
:104C300073734E756D21000043000020F0B587B0FE
:104C40000020FCF727FE29A207CA04AB07C32AA24B
:104C500007CA01AB07C30020FCF71CFE00214FF67A
:104C6000FF70FDF71BFA0220FDF722FA0026012053
:104C7000FEF7E0FE06463046FBF720FD0127002543
:104C800007B3412500241AE005F12300001B82B27E
:104C90001A2104A8FDF730FAC5F14100204482B280
:104CA0001A2101A8FDF728FAC5F14100204481B27C
:104CB0000023A0221846FCF7A1FE601CC4B2AC423F
:104CC000E2DB00E000BF00BF0E4A00210846FFF70C
:104CD00031FE052000F058F800F01CF80120FDF727
:104CE000E7F90020FCF7D6FD07B0F0BD2020204AF0
:104CF0004420202020000000534543555249545978
:104D0000200000008C4E00080346180440EA0120F1
:104D10001043704710B5002400BF05E0002006498D
:104D200041F82400601CC4B2062CF7DB06210248BF
:104D3000FDF7F6FA10BD00008002002070B5104D9E
:104D40002D78C5B1C1F307450D4E367875432A124B
:104D5000C1F307250A4E367875432B12CDB2084EA3
:104D6000367875432C12150445EA03252543054E74
:104D700046F8205002E0034D45F8201070BD0000B9
:104D800006000020800200202DE9F047074600269B
:104D900030E000252AE0002412E0A019FF2190FB5A
:104DA000F1F201FB12000FFA80F9484600F028F8F2
:104DB00080466119C8B24146FFF7C0FFE01CC4B28B
:104DC000062CEADB06210D48FDF7AAFA3846FEF765
:104DD00091FD002406E06119C8B20021FFF7AEFF83
:104DE000E01CC4B2062CF6DB681CC5B2032DD2DB76
:104DF000701C86B2FF2ECCDDBDE8F087800200205B
:104E000010B50446552C0BDA04EB4402C2F1FF0244
:104E1000D1B204EB4402D0B20022FFF775FF10BDFF
:104E2000AA2C0EDAA4F1550004B204EB4401CAB274
:104E300004EB4401C1F1FF01C8B20021FFF764FF98
:104E4000EDE7A4F1AA0004B204EB4400C0F1FF00B6
:104E5000C2B204EB4400C1B20020FFF755FFDEE709
:104E600010B500290AD00878002807D005487844F2
:104E7000FBF760FD002801D0002010BD02487844F7
:104E800010BD0000B6A50000AEA500000010A000F7
:104E90008000011B00000000000000000000000076
:104EA0000000000000000000000000000000000002
:104EB00000000000000000000000000000000000F2
:104EC00000000000000000000000000000000000E2
:104ED00000000000000000000000000000000000D2
:104EE00000000000000000000000000000000000C2
:104EF00000000000000000000000000000000000B2
:104F000000000000000000000000000000000000A1
:104F10000000000020002000000000000000000051
:104F20000000000000000000000000000000000081
:104F30000000000000000000000000000000000071
:104F40000000000020000000000000000000200021
:104F50000000000000000000000000000000000051
:104F60000000000000000000000000000000000041
:104F70000000000000000000000000000000000031
:104F80000000000000000000000000000000000021
:104F90000000000000000000000000000000000011
:104FA0000000000000000000000000000000000001
:104FB00000000000000000000000000000000000F1
:104FC00000000000000000000000000000000000E1
:104FD00000000000000000000000000000000000D1
:104FE00000000000000000000000000000000000C1
:104FF00000000000000000000000000000000000B1
:1050000000000000000000000000000000000000A0
:105010000000000000000000000000000000000090
:105020000000000000000000000000000000000080
:105030000000000000000000000000000000000070
:105040000000000000002000200000000000000020
:1050500020002000000000000000000020000000F0
:105060000000000000000000200000000000000020
:105070000000000000000000000000000000000030
:105080000000000000000000000000000000000020
:1050900000000000000000000000000000002000F0
:1050A000410841080000000000000000000000006E
:1050B00000002000000000000000000000000000D0
:1050C00000000000000000000000000000000000E0
:1050D00000000000000000000000000000000000D0
:1050E00000000000000000000000000000000000C0
:1050F00000000000000000000000000000000000B0
:10510000000000000000000000000000000000009F
:10511000000000000000000000000000000000008F
:10512000000000000000000000000000000000007F
:10513000000000000000000000000000000000006F
:10514000000000000000000000000000000000005F
:10515000000000000000000000000000000000004F
:10516000000000000000000000000000000000003F
:10517000000000000000000000000000000000002F
:10518000000000000000000000000000000000001F
:1051900000000000000020002000000000000000CF
:1051A00000000000000000000000000000000000FF
:1051B000000000000000200020002000200000006F
:1051C00000000000000000000000000000000000DF
:1051D000000000000000000020002000000000008F
:1051E000000000000000000000000000200020007F
:1051F00000000000000000000000000000000000AF
:10520000000000000000000000000000000000009E
:10521000000000000000000000000000000000008E
:10522000000000000000000000000000000000007E
:10523000000000000000000000000000000000006E
:10524000000000000000000000000000000000005E
:10525000000000000000000000000000000000004E
:10526000000000000000000000000000000000003E
:10527000000000000000000000000000000000002E
:10528000000000000000000000000000000000001E
:10529000000000000000000000000000000000000E
:1052A00000000000000000000000000000000000FE
:1052B00000000000000000000000000000000000EE
:1052C0000000000041082000000000000000000075
:1052D000000000000000000020002000200000006E
:1052E00000002000000061086529694A6D6BB294D6
:1052F000B6B579CEDBDEFBDE3CE77DEFBEF7BEF771
:105300009EF79EF7FBDE9AD6F7BD55AD718C2C63E8
:10531000E739E31820000000000000000000200032
:1053200041084108000000002000200000000000AB
:10533000000000000000000000000000000000006D
:10534000000000000000000000000000000000005D
:10535000000000000000000000000000000000004D
:10536000000000000000000000000000000000003D
:10537000000000000000000000000000000000002D
:10538000000000000000000000000000000000001D
:10539000000000000000000000000000000000000D
:1053A00000000000000000000000000000000000FD
:1053B00000000000000000000000000000000000ED
:1053C00000000000000000000000000000000000DD
:1053D00000000000000000000000000000000000CD
:1053E00000000000000000000000000000000000BD
:1053F00000000000000000000000000000000000AD
:10540000000000000000000000000000000020007C
:105410002000200020000000000020002000610883
:1054200028423084B6B59AD6BEF7FFFFFFFFBEF71D
:10543000DFFFFFFFFFFFFFFFFFFFFFFFFFFFFFFF9C
:10544000FFFFFFFFFFFFFFFFFFFFFFFFFFFFFFFF6C
:10545000BEF77DEF18C655ADCF7BC7396108000098
:10546000000000002000000000000000000000001C
:1054700020002000000000000000000000000000EC
:10548000000000000000000000000000000000001C
:10549000000000000000000000000000000000000C
:1054A00000000000000000000000000000000000FC
:1054B00000000000000000000000000000000000EC
:1054C00000000000000000000000000000000000DC
:1054D00000000000000000000000000000000000CC
:1054E00000000000000000000000000000000000BC
:1054F00000000000000000000000000000000000AC
:10550000000000000000000000000000000000009B
:10551000000000000000000000000000000000008B
:10552000000000000000000000000000000000007B
:10553000000000000000000000000000000000006B
:105540000000000000000000410841084108000080
:105550000000000000008210C739AE7318C6DFFFDC
:10556000FFFFDFFFFFFFFFFFFFFFBEF71CE759CE86
:1055700075ADF39CEF7BAE736D6B2C63EB5AEB5AFE
:10558000EB5A0C636D6B108414A5F7BDBAD65DEFB2
:10559000DFFFFFFFFFFFFFFFFFFFDFFF5DEFB6B5A0
:1055A0002C63242100000000200061084108000055
:1055B00000000000000000000000000000000000EB
:1055C00000000000000000000000000000000000DB
:1055D00000000000000000000000000000000000CB
:1055E00000000000000000000000000000000000BB
:1055F00000000000000000000000000000000000AB
:10560000000000000000000000000000000000009A
:10561000000000000000000000000000000000008A
:10562000000000000000000000000000000000007A
:10563000000000000000000000000000000000006A
:10564000000000000000000000000000000000005A
:10565000000000000000000000000000000000004A
:10566000000000000000000000000000000000003A
:10567000000000000000000000000000000000002A
:10568000000000000000000000000000000000001A
:10569000C3186529518C79CEFFFFFFFFDFFFFFFFA5
:1056A000BEF7DBDED39CAE730842042182104108B2
:1056B00000000000000000000000000000000000EA
:1056C0002000410861082000000000000000821056
:1056D000A631694A108496B53CE7FFFFFFFFDFFF64
:1056E000BEF7BEF7D7BD6D6BC318000000004108C0
:1056F0004108000000000000000000000000000061
:105700000000000000000000000000000000000099
:105710000000000000000000000000000000000089
:105720000000000000000000000000000000000079
:105730000000000000000000000000000000000069
:105740000000000000000000000000000000000059
:105750000000000000000000000000000000000049
:105760000000000000000000000000000000000039
:105770000000000000000000000000000000000029
:105780000000000000000000000000000000000019
:105790000000000000000000000000000000000009
:1057A00000000000000000000000000000000000F9
:1057B00000000000000000000000000000000000E9
:1057C000000000002000200000000000C318EB5A79
:1057D000F7BDFFFFFFFFFFFFFFFF1CE734A5CB5A1C
:1057E0000421000000000000000000000000000094
:1057F00020004108000000002000200020000000E0
:105800000000000000000000200020002000000038
:1058100000000000000000006108A631CF7B18C620
:105820007DEFFFFFFFFFFFFF9EF775AD494A0000C8
:10583000000041080000000000000000000000001F
:105840000000000000000000000000000000000058
:105850000000000000000000000000000000000048
:105860000000000000000000000000000000000038
:105870000000000000000000000000000000000028
:105880000000000000000000000000000000000018
:105890000000000000000000000000000000000008
:1058A00000000000000000000000000000000000F8
:1058B00000000000000000000000000000000000E8
:1058C00000000000000000000000000000000000D8
:1058D00000000000000000000000000000000000C8
:1058E000000000000000200041080000000000004F
:1058F000000000004108000000000000200000003F
:10590000000041080000000045293084FBDEFFFF55
:10591000FFFFFFFFDBDED39C0842410800000000D0
:105920002000000000000000200000000000000037
:105930000000200000000000000000000000000047
:105940000000000000000000000000000000000057
:105950000000000000000000200000000000000027
:10596000E318CB5AD7BD9EF7FFFFDFFFFFFF59CEED
:10597000CB5A610800000000000020000000000079
:1059800020000000000000000000000000000000F7
:105990000000000000000000000000000000000007
:1059A00000000000000000000000000000000000F7
:1059B00000000000000000000000000000000000E7
:1059C00000000000000000000000000000000000D7
:1059D00000000000000000000000000000000000C7
:1059E00000000000000000000000000000000000B7
:1059F00000000000000000000000000000000000A7
:105A00000000000000000000000000000000000096
:105A10000000000000000000000000000000000086
:105A20000000000020000000000000000000000056
:105A30000000000000002000200000000000200006
:105A4000000000004529718C3CE7FFFFFFFFBEF717
:105A500075ADAA528210410800000000200020000D
:105A60000000000000000000000000000000000036
:105A70000000000000000000000000000000000026
:105A80000000000000000000000000000000000016
:105A9000000000000000410800002000000000009D
:105AA0000000200000002421CF7BFBDE9EF7FFFFDB
:105AB000FFFF18C6AE732000000000000000821037
:105AC000000000002000000000002000410800004D
:105AD00000000000000000000000000000000000C6
